:107800001F92CDB7DEB7112484B714BE92E09093D7
:10781000C00098E19093C10096E09093C20090E17F
:107820009093C40081FD06C083FF03C089836CD19F
:107830008981BAD285E08093810088E180936000DD
:107840008EE080936000219A86E028E13EEF91E08F
:10785000309385002093840096BBB09BFECF199A8D
:10786000A8958150A9F7612C712C08E128E0F22E2F
:10787000EE24E39435E0D32E41E1C42E13E06DD223
:10788000813469F46AD2898376D289818238F9F0A9
:10789000813811F485E001C083E058D27BC0823486
:1078A00011F484E103C0853419F485E070D272C00C
:1078B000853549F452D2B82E50D26B2C712C782ACF
:1078C000660C771C66C0863521F484E060D280E0C7
:1078D000E4CF843609F03FC040D23FD2982E3DD24B
:1078E000611480E7780618F4F30117BFE895A12C1E
:1078F000BB24B39432D2F50181935F019E12FACF7B
:107900006114F0E77F0618F0F30117BFE89533D252
:1079100007B600FCFDCFA301A0E0B1E08C91129668
:107920009D0121503109F901208190E0922BFA014B
:107930000C01E7BEE89511244E5F5F4FA038F1E0DF
:10794000BF0761F7F301D7BEE89507B600FCFDCF8E
:10795000C7BEE8951FC0843769F4FFD1FED1B82EA9
:10796000FCD109D2F30185913F01F0D1BA94B11055
:10797000F9CF10C0853739F4FED18EE1E7D185E922
:10798000E5D18FE08ACF813521F400936000F09239
:107990006000F1D180E1DAD172CFCF93AB01BC01AD
:1079A000352F29ECF4EAA4EAB0EA94E8215009F46E
:1079B000A8C0E1EAA093BC0080E0C091BC00C7FD74
:1079C00004C08F5F8B3FC9F79CC08091B900887F4E
:1079D00080930001803129F0883361F3883009F009
:1079E00090C0B093BB009093BC0080E0C091BC00FD
:1079F000C7FD04C08F5F8B3FC9F77EC08091B9007F
:107A0000887F80930001803289F2883399F288312F
:107A100009F072C03093BB009093BC0080E0C0912D
:107A2000BC00C7FD04C08F5F8B3FC9F765C0809164
:107A3000B900887F809300018832A1F44093BB0095
:107A40009093BC0080E0C091BC00C7FD04C08F5F74
:107A50008B3FC9F751C08091B900887F80930001A6
:107A6000883221F0883309F4A5CF46C0F093BC00DA
:107A700080E0C091BC00C7FD04C08F5F8B3FC9F799
:107A80003BC08091B900887F80930001803129F04C
:107A9000883309F48FCF883079F5E093BB00909359
:107AA000BC0080E0C091BC00C7FD04C08F5F8B3F6D
:107AB000C9F722C08091B900887F80930001883384
:107AC00009F478CF8034C1F484E88093BC0080E06E
:107AD0009091BC0097FD04C08F5F8B3FC9F70CC02D
:107AE0008091B900887F80930001803511F088353E
:107AF00019F48091BB0001C08FEF94E99093BC0012
:107B000001C08FEFCF9108959F92AF92BF92CF9215
:107B1000DF92EF92FF920F931F93CF93DF9388E151
:107B200080936000109260001092B90080E2809310
:107B3000B80084E08093BC0060E070E0CB012DDFF2
:107B4000863409F0F7C061E070E080E090E025DF66
:107B50008C3409F0EFC062E070E080E090E01DDF5F
:107B6000883509F0E7C066E070E080E090E015DF5E
:107B70008A3309F0DFC069E070E080E090E00DDF5B
:107B80008A3309F0D7C067E070E080E090E005DF5D
:107B9000C82F68E070E080E090E0FFDED0E0DC2FEE
:107BA000CC27C82BC0FDC6C0199AC12CD12C00E02F
:107BB00010E0BB24B39483E0A82E95E0992E0C1717
:107BC0001D0770F5B801665F7F4F80E090E0E5DE4D
:107BD000E82EF12CB801655F7F4F80E090E0DDDE9C
:107BE000F82AF8010701B7BEE89511240E5F1F4F70
:107BF000C8018F779927892B19F00C171D07F9F603
:107C0000F601A7BEE89507B600FCFDCFF60197BECA
:107C1000E89507B600FCFDCFF0E8CF0ED11CCFCF22
:107C2000199881E187BFE89599EC34EA40EA24E8A5
:107C3000915009F478C03093BC0080E05091BC00B2
:107C400057FD04C08F5F8B3FC9F76DC08091B900AD
:107C5000887F80930001803129F0883361F3883078
:107C600009F061C04093BB002093BC0080E05091BC
:107C7000BC0057FD04C08F5F8B3FC9F751C0809196
:107C8000B900887F80930001803291F2883399F2A5
:107C9000883109F045C01092BB002093BC0080E001
:107CA0005091BC0057FD04C08F5F8B3FC9F738C0AF
:107CB0008091B900887F809300018832A1F41092EE
:107CC000BB002093BC0080E05091BC0057FD04C075
:107CD0008F5F8B3FC9F724C08091B900887F809364
:107CE0000001883221F0883309F4A5CF19C098E04B
:107CF0002FEF34E82093BB003093BC0080E040912C
:107D0000BC0047FD04C08F5F8B3FC9F709C080915D
:107D1000B900887F80930001883211F4915051F7A7
:107D200084E98093BC0088E18093600088E08093C0
:107D30006000FFCFDF91CF911F910F91FF90EF90E7
:107D4000DF90CF90BF90AF909F9008959091C0002A
:107D500095FFFCCF8093C6000895199A8091C000CA
:107D600087FFFCCF8091C00084FD01C0A895809161
:107D7000C600199A0895F1DF803239F088E18093C6
:107D8000600088E080936000FFCF84E1DFCFCF9375
:107D9000C82FE3DFC150E9F7CF91EDCFE0E6F0E087
:107DA00098E1908380830895282EE0E6F0E088E152
:0A7DB00080831082EE27FF2709945C
:027FFE0000057C
:040000030000780081
:00000001FF
