:107800001F92CDB7DEB7112414B714BE82E0809367
:10781000C00088E18093C10086E08093C20080E1CF
:107820008093C40083E5BBD011FD06C013FD7ED15B
:1078300081E4B5D0812FE2D285E08093810088E198
:10784000809360008EE080936000219A86E028E1BA
:107850003EEF91E0309385002093840096BBB09B6F
:10786000FECF199AA8958150A9F7612C712C08E1D7
:1078700028E0F22EEE24E39435E0D32E41E1C42E2D
:1078800013E095D2813469F492D289839ED28981A2
:107890008238F9F0813811F485E001C083E07FD0AF
:1078A0007BC0823411F484E103C0853419F485E08F
:1078B00098D272C0853549F47AD2B82E78D26B2C22
:1078C000712C782A660C771C66C0863521F484E01A
:1078D00088D280E0E4CF843609F03FC068D267D216
:1078E000982E65D2611480E7780618F4F30117BF6B
:1078F000E895A12CBB24B3945AD2F50181935F0182
:107900009E12FACF6114F0E77F0618F0F30117BF5B
:10791000E8955BD207B600FCFDCFA301A0E0B1E083
:107920008C9112969D0121503109F901208190E03E
:10793000922BFA010C01E7BEE89511244E5F5F4FD0
:10794000A038F1E0BF0761F7F301D7BEE89507B6AD
:1079500000FCFDCFC7BEE8951FC0843769F427D26D
:1079600026D2B82E24D231D2F30185913F0117D00F
:10797000BA94B110F9CF10C0853739F426D28EE110
:107980000ED085E90CD08FE08ACF813521F40093A9
:107990006000F092600019D280E101D072CF909126
:1079A000C00095FFFCCF8093C6000895CF93AB0134
:1079B000BC01352F29ECF4EAA4EAB0EA94E821509E
:1079C00009F4B1C0E1EAA093BC0080E0C091BC0022
:1079D000C7FD06C08F5F8B3FC9F781E3E0DFA3C01F
:1079E0008091B900887F80930001803129F088332D
:1079F00051F3883009F097C0B093BB009093BC005E
:107A000080E0C091BC00C7FD05C08F5F8B3FC9F708
:107A100082E376C08091B900887F80930001803234
:107A200071F2883381F2883109F078C03093BB005D
:107A30009093BC0080E0C091BC00C7FD05C08F5F83
:107A40008B3FC9F783E35CC08091B900887F809346
:107A500000018832A9F44093BB009093BC0080E001
:107A6000C091BC00C7FD05C08F5F8B3FC9F784E3A1
:107A700047C08091B900887F80930001883221F04F
:107A8000883309F4A0CF4AC0F093BC0080E0C091D5
:107A9000BC00C7FD05C08F5F8B3FC9F785E330C0D1
:107AA0008091B900887F80930001803129F088336C
:107AB00009F489CF883091F5E093BB009093BC0026
:107AC00080E0C091BC00C7FD05C08F5F8B3FC9F748
:107AD00086E316C08091B900887F809300018833C7
:107AE00009F471CF8034D1F484E88093BC0080E045
:107AF0009091BC0097FD06C08F5F8B3FC9F787E36D
:107B00004EDF0CC08091B900887F809300018035E2
:107B100011F0883519F48091BB0001C08FEF94E912
:107B20009093BC0001C08FEFCF9108959F92AF92C8
:107B3000BF92CF92DF92EF92FF920F931F93CF935A
:107B4000DF9386E42CDF88E1809360001092600070
:107B50001092B90080E28093B80084E08093BC006A
:107B600082E31DDF60E070E0CB0120DF863409F0A6
:107B700005C161E070E080E090E018DF8C3409F02E
:107B8000FDC062E070E080E090E010DF883509F031
:107B9000F5C066E070E080E090E008DF8A3309F02D
:107BA000EDC069E070E080E090E000DF8A3309F02A
:107BB000E5C08CE4F4DE67E070E080E090E0F6DEA3
:107BC000C82F68E070E080E090E0F0DED0E0DC2FCD
:107BD000CC27C82BC0FDDFC0199AC12CD12C00E0E6
:107BE00010E0BB24B39483E0A82E95E0992E0C17E7
:107BF0001D0708F030C08AE2D2DEB801665F7F4F11
:107C000080E090E0D3DEE82EF12CB801655F7F4F75
:107C100080E090E0CBDEF82AF8010701B7BEE895D6
:107C200011240E5F1F4FC8018F779927892B19F0F8
:107C30000C171D07E1F6F601A7BEE89507B600FC94
:107C4000FDCFF60197BEE89507B600FCFDCFF0E842
:107C5000CF0ED11CCCCF199881E187BFE89585E480
:107C60009EDE99EC34EA40EA24E8915009F47FC0A2
:107C70003093BC0080E05091BC0057FD06C08F5F80
:107C80008B3FC9F781E48BDE72C08091B900887F99
:107C900080930001803129F0883351F3883009F056
:107CA00066C04093BB002093BC0080E05091BC00B4
:107CB00057FD05C08F5F8B3FC9F782E419C08091E3
:107CC000B900887F80930001803279F2883381F295
:107CD000883109F049C01092BB002093BC0080E0BD
:107CE0005091BC0057FD06C08F5F8B3FC9F783E4FE
:107CF00056DE3AC08091B900887F809300018832B7
:107D0000A9F41092BB002093BC0080E05091BC000D
:107D100057FD05C08F5F8B3FC9F784E4E9CF8091A1
:107D2000B900887F80930001883221F0883309F4FC
:107D30009FCF1AC098E02FEF34E82093BB00309318
:107D4000BC0080E04091BC0047FD05C08F5F8B3FC9
:107D5000C9F785E4CDCF8091B900887F8093000179
:107D6000883211F4915049F784E98093BC0088E18E
:107D70008093600088E080936000FFCF88E5DF910A
:107D8000CF911F910F91FF90EF90DF90CF90BF9018
:107D9000AF909F9004CEDF91CF911F910F91FF90F4
:107DA000EF90DF90CF90BF90AF909F900895199A79
:107DB0008091C00087FFFCCF8091C00084FD01C08E
:107DC000A8958091C600199A0895F1DF803239F0A4
:107DD00088E18093600088E080936000FFCF84E1B9
:107DE000DECDCF93C82FE3DFC150E9F7CF91EDCFC0
:107DF000E0E6F0E098E1908380830895282EE0E6A5
:0E7E0000F0E088E180831082EE27FF270994CE
:027FFE0000057C
:040000030000780081
:00000001FF
